{
  "contractName": "BhangraCoin",
  "abi": [
    {
      "inputs": [
        {
          "internalType": "uint256",
          "name": "_intialSupply",
          "type": "uint256"
        },
        {
          "internalType": "uint8",
          "name": "_intialDecimals",
          "type": "uint8"
        }
      ],
      "stateMutability": "nonpayable",
      "type": "constructor"
    },
    {
      "anonymous": false,
      "inputs": [
        {
          "indexed": true,
          "internalType": "address",
          "name": "_owner",
          "type": "address"
        },
        {
          "indexed": true,
          "internalType": "address",
          "name": "_spender",
          "type": "address"
        },
        {
          "indexed": false,
          "internalType": "uint256",
          "name": "_value",
          "type": "uint256"
        }
      ],
      "name": "Approval",
      "type": "event"
    },
    {
      "anonymous": false,
      "inputs": [
        {
          "indexed": true,
          "internalType": "address",
          "name": "_from",
          "type": "address"
        },
        {
          "indexed": true,
          "internalType": "address",
          "name": "_to",
          "type": "address"
        },
        {
          "indexed": false,
          "internalType": "uint256",
          "name": "_value",
          "type": "uint256"
        }
      ],
      "name": "Transfer",
      "type": "event"
    },
    {
      "inputs": [
        {
          "internalType": "address",
          "name": "",
          "type": "address"
        },
        {
          "internalType": "address",
          "name": "",
          "type": "address"
        }
      ],
      "name": "allowance",
      "outputs": [
        {
          "internalType": "uint256",
          "name": "",
          "type": "uint256"
        }
      ],
      "stateMutability": "view",
      "type": "function",
      "constant": true
    },
    {
      "inputs": [
        {
          "internalType": "address",
          "name": "",
          "type": "address"
        }
      ],
      "name": "balanceOf",
      "outputs": [
        {
          "internalType": "uint256",
          "name": "",
          "type": "uint256"
        }
      ],
      "stateMutability": "view",
      "type": "function",
      "constant": true
    },
    {
      "inputs": [],
      "name": "decimals",
      "outputs": [
        {
          "internalType": "uint8",
          "name": "",
          "type": "uint8"
        }
      ],
      "stateMutability": "view",
      "type": "function",
      "constant": true
    },
    {
      "inputs": [],
      "name": "name",
      "outputs": [
        {
          "internalType": "string",
          "name": "",
          "type": "string"
        }
      ],
      "stateMutability": "view",
      "type": "function",
      "constant": true
    },
    {
      "inputs": [],
      "name": "standard",
      "outputs": [
        {
          "internalType": "string",
          "name": "",
          "type": "string"
        }
      ],
      "stateMutability": "view",
      "type": "function",
      "constant": true
    },
    {
      "inputs": [],
      "name": "symbol",
      "outputs": [
        {
          "internalType": "string",
          "name": "",
          "type": "string"
        }
      ],
      "stateMutability": "view",
      "type": "function",
      "constant": true
    },
    {
      "inputs": [],
      "name": "totalSupply",
      "outputs": [
        {
          "internalType": "uint256",
          "name": "",
          "type": "uint256"
        }
      ],
      "stateMutability": "view",
      "type": "function",
      "constant": true
    },
    {
      "inputs": [
        {
          "internalType": "address",
          "name": "_to",
          "type": "address"
        },
        {
          "internalType": "uint256",
          "name": "_value",
          "type": "uint256"
        }
      ],
      "name": "transfer",
      "outputs": [
        {
          "internalType": "bool",
          "name": "success",
          "type": "bool"
        }
      ],
      "stateMutability": "nonpayable",
      "type": "function"
    },
    {
      "inputs": [
        {
          "internalType": "address",
          "name": "_spender",
          "type": "address"
        },
        {
          "internalType": "uint256",
          "name": "_value",
          "type": "uint256"
        }
      ],
      "name": "approve",
      "outputs": [
        {
          "internalType": "bool",
          "name": "success",
          "type": "bool"
        }
      ],
      "stateMutability": "nonpayable",
      "type": "function"
    },
    {
      "inputs": [
        {
          "internalType": "address",
          "name": "_from",
          "type": "address"
        },
        {
          "internalType": "address",
          "name": "_to",
          "type": "address"
        },
        {
          "internalType": "uint256",
          "name": "_value",
          "type": "uint256"
        }
      ],
      "name": "transferFrom",
      "outputs": [
        {
          "internalType": "bool",
          "name": "success",
          "type": "bool"
        }
      ],
      "stateMutability": "nonpayable",
      "type": "function"
    }
  ],
  "bytecode": "0x60806040526040518060400160405280600c81526020017f4268616e67726120436f696e000000000000000000000000000000000000000081525060009080519060200190620000519291906200018f565b506040518060400160405280600481526020017f4247524100000000000000000000000000000000000000000000000000000000815250600190805190602001906200009f9291906200018f565b506040518060400160405280601181526020017f4268616e67726120436f696e2076312e3100000000000000000000000000000081525060029080519060200190620000ed9291906200018f565b50348015620000fb57600080fd5b50604051620011f3380380620011f383398181016040528101906200012191906200026d565b81600560003373ffffffffffffffffffffffffffffffffffffffff1673ffffffffffffffffffffffffffffffffffffffff168152602001908152602001600020819055508160038190555080600460006101000a81548160ff021916908360ff16021790555050506200035e565b8280546200019d90620002c5565b90600052602060002090601f016020900481019282620001c157600085556200020d565b82601f10620001dc57805160ff19168380011785556200020d565b828001600101855582156200020d579182015b828111156200020c578251825591602001919060010190620001ef565b5b5090506200021c919062000220565b5090565b5b808211156200023b57600081600090555060010162000221565b5090565b60008151905062000250816200032a565b92915050565b600081519050620002678162000344565b92915050565b600080604083850312156200028157600080fd5b600062000291858286016200023f565b9250506020620002a48582860162000256565b9150509250929050565b6000819050919050565b600060ff82169050919050565b60006002820490506001821680620002de57607f821691505b60208210811415620002f557620002f4620002fb565b5b50919050565b7f4e487b7100000000000000000000000000000000000000000000000000000000600052602260045260246000fd5b6200033581620002ae565b81146200034157600080fd5b50565b6200034f81620002b8565b81146200035b57600080fd5b50565b610e85806200036e6000396000f3fe608060405234801561001057600080fd5b506004361061009e5760003560e01c80635a3b7e42116100665780635a3b7e421461015d57806370a082311461017b57806395d89b41146101ab578063a9059cbb146101c9578063dd62ed3e146101f95761009e565b806306fdde03146100a3578063095ea7b3146100c157806318160ddd146100f157806323b872dd1461010f578063313ce5671461013f575b600080fd5b6100ab610229565b6040516100b89190610bfa565b60405180910390f35b6100db60048036038101906100d69190610b3d565b6102b7565b6040516100e89190610bdf565b60405180910390f35b6100f96103a9565b6040516101069190610c1c565b60405180910390f35b61012960048036038101906101249190610aee565b6103af565b6040516101369190610bdf565b60405180910390f35b61014761071a565b6040516101549190610c37565b60405180910390f35b61016561072d565b6040516101729190610bfa565b60405180910390f35b61019560048036038101906101909190610a89565b6107bb565b6040516101a29190610c1c565b60405180910390f35b6101b36107d3565b6040516101c09190610bfa565b60405180910390f35b6101e360048036038101906101de9190610b3d565b610861565b6040516101f09190610bdf565b60405180910390f35b610213600480360381019061020e9190610ab2565b610a3a565b6040516102209190610c1c565b60405180910390f35b6000805461023690610d80565b80601f016020809104026020016040519081016040528092919081815260200182805461026290610d80565b80156102af5780601f10610284576101008083540402835291602001916102af565b820191906000526020600020905b81548152906001019060200180831161029257829003601f168201915b505050505081565b600081600660003373ffffffffffffffffffffffffffffffffffffffff1673ffffffffffffffffffffffffffffffffffffffff16815260200190815260200160002060008573ffffffffffffffffffffffffffffffffffffffff1673ffffffffffffffffffffffffffffffffffffffff168152602001908152602001600020819055508273ffffffffffffffffffffffffffffffffffffffff163373ffffffffffffffffffffffffffffffffffffffff167f8c5be1e5ebec7d5bd14f71427d1e84f3dd0314c0f7b2291e5b200ac8c7c3b925846040516103979190610c1c565b60405180910390a36001905092915050565b60035481565b600081600560008673ffffffffffffffffffffffffffffffffffffffff1673ffffffffffffffffffffffffffffffffffffffff1681526020019081526020016000205410156103fd57600080fd5b81600660008673ffffffffffffffffffffffffffffffffffffffff1673ffffffffffffffffffffffffffffffffffffffff16815260200190815260200160002060003373ffffffffffffffffffffffffffffffffffffffff1673ffffffffffffffffffffffffffffffffffffffff16815260200190815260200160002054101561048657600080fd5b81600560008673ffffffffffffffffffffffffffffffffffffffff1673ffffffffffffffffffffffffffffffffffffffff168152602001908152602001600020546104d19190610cc4565b600560008673ffffffffffffffffffffffffffffffffffffffff1673ffffffffffffffffffffffffffffffffffffffff1681526020019081526020016000208190555081600560008573ffffffffffffffffffffffffffffffffffffffff1673ffffffffffffffffffffffffffffffffffffffff1681526020019081526020016000205461055f9190610c6e565b600560008573ffffffffffffffffffffffffffffffffffffffff1673ffffffffffffffffffffffffffffffffffffffff1681526020019081526020016000208190555081600660008673ffffffffffffffffffffffffffffffffffffffff1673ffffffffffffffffffffffffffffffffffffffff16815260200190815260200160002060003373ffffffffffffffffffffffffffffffffffffffff1673ffffffffffffffffffffffffffffffffffffffff1681526020019081526020016000205461062a9190610cc4565b600660008673ffffffffffffffffffffffffffffffffffffffff1673ffffffffffffffffffffffffffffffffffffffff16815260200190815260200160002060003373ffffffffffffffffffffffffffffffffffffffff1673ffffffffffffffffffffffffffffffffffffffff168152602001908152602001600020819055508273ffffffffffffffffffffffffffffffffffffffff168473ffffffffffffffffffffffffffffffffffffffff167fddf252ad1be2c89b69c2b068fc378daa952ba7f163c4a11628f55a4df523b3ef846040516107079190610c1c565b60405180910390a3600190509392505050565b600460009054906101000a900460ff1681565b6002805461073a90610d80565b80601f016020809104026020016040519081016040528092919081815260200182805461076690610d80565b80156107b35780601f10610788576101008083540402835291602001916107b3565b820191906000526020600020905b81548152906001019060200180831161079657829003601f168201915b505050505081565b60056020528060005260406000206000915090505481565b600180546107e090610d80565b80601f016020809104026020016040519081016040528092919081815260200182805461080c90610d80565b80156108595780601f1061082e57610100808354040283529160200191610859565b820191906000526020600020905b81548152906001019060200180831161083c57829003601f168201915b505050505081565b600081600560003373ffffffffffffffffffffffffffffffffffffffff1673ffffffffffffffffffffffffffffffffffffffff1681526020019081526020016000205410156108af57600080fd5b81600560003373ffffffffffffffffffffffffffffffffffffffff1673ffffffffffffffffffffffffffffffffffffffff168152602001908152602001600020546108fa9190610cc4565b600560003373ffffffffffffffffffffffffffffffffffffffff1673ffffffffffffffffffffffffffffffffffffffff1681526020019081526020016000208190555081600560008573ffffffffffffffffffffffffffffffffffffffff1673ffffffffffffffffffffffffffffffffffffffff168152602001908152602001600020546109889190610c6e565b600560008573ffffffffffffffffffffffffffffffffffffffff1673ffffffffffffffffffffffffffffffffffffffff168152602001908152602001600020819055508273ffffffffffffffffffffffffffffffffffffffff163373ffffffffffffffffffffffffffffffffffffffff167fddf252ad1be2c89b69c2b068fc378daa952ba7f163c4a11628f55a4df523b3ef84604051610a289190610c1c565b60405180910390a36001905092915050565b6006602052816000526040600020602052806000526040600020600091509150505481565b600081359050610a6e81610e21565b92915050565b600081359050610a8381610e38565b92915050565b600060208284031215610a9b57600080fd5b6000610aa984828501610a5f565b91505092915050565b60008060408385031215610ac557600080fd5b6000610ad385828601610a5f565b9250506020610ae485828601610a5f565b9150509250929050565b600080600060608486031215610b0357600080fd5b6000610b1186828701610a5f565b9350506020610b2286828701610a5f565b9250506040610b3386828701610a74565b9150509250925092565b60008060408385031215610b5057600080fd5b6000610b5e85828601610a5f565b9250506020610b6f85828601610a74565b9150509250929050565b610b8281610d0a565b82525050565b6000610b9382610c52565b610b9d8185610c5d565b9350610bad818560208601610d4d565b610bb681610e10565b840191505092915050565b610bca81610d36565b82525050565b610bd981610d40565b82525050565b6000602082019050610bf46000830184610b79565b92915050565b60006020820190508181036000830152610c148184610b88565b905092915050565b6000602082019050610c316000830184610bc1565b92915050565b6000602082019050610c4c6000830184610bd0565b92915050565b600081519050919050565b600082825260208201905092915050565b6000610c7982610d36565b9150610c8483610d36565b9250827fffffffffffffffffffffffffffffffffffffffffffffffffffffffffffffffff03821115610cb957610cb8610db2565b5b828201905092915050565b6000610ccf82610d36565b9150610cda83610d36565b925082821015610ced57610cec610db2565b5b828203905092915050565b6000610d0382610d16565b9050919050565b60008115159050919050565b600073ffffffffffffffffffffffffffffffffffffffff82169050919050565b6000819050919050565b600060ff82169050919050565b60005b83811015610d6b578082015181840152602081019050610d50565b83811115610d7a576000848401525b50505050565b60006002820490506001821680610d9857607f821691505b60208210811415610dac57610dab610de1565b5b50919050565b7f4e487b7100000000000000000000000000000000000000000000000000000000600052601160045260246000fd5b7f4e487b7100000000000000000000000000000000000000000000000000000000600052602260045260246000fd5b6000601f19601f8301169050919050565b610e2a81610cf8565b8114610e3557600080fd5b50565b610e4181610d36565b8114610e4c57600080fd5b5056fea2646970667358221220a34dd146a3e30f402da14a4e397236c924d0097a0f9a71dd957c29f0b80fcf8f64736f6c63430008020033",
  "immutableReferences": {},
  "source": "pragma solidity >= 0.8.0<0.9.0;\r\n\r\n/*\r\nERC-20 token\r\n*/\r\ncontract BhangraCoin {\r\n\r\n\r\n\r\n    string public name = 'Bhangra Coin';\r\n    string public symbol = 'BGRA';\r\n    string public standard = 'Bhangra Coin v1.1';\r\n    uint256 public totalSupply;\r\n    uint8 public decimals;\r\n\r\n    // @dev Records data of all the tokens transferred\r\n    // @param _from Address that sends tokens\r\n    // @param _to Address that receives tokens\r\n    // @param _value the amount that _spender can spend on behalf of _owner\r\n    event Transfer(\r\n        address indexed _from,\r\n        address indexed _to,\r\n        uint256 _value\r\n    );\r\n\r\n    // @dev Records data of an Approval to spend the tokens on behalf of\r\n    // @param _owner address that approves to pay on its behalf\r\n    // @param _spender address to whom the approval is issued\r\n    // @param _value the amount that _spender can spend on behalf of _owner\r\n\r\n    event Approval(\r\n        address indexed _owner,\r\n        address indexed _spender,\r\n        uint256 _value\r\n    );\r\n\r\n\r\n    //@dev mapping array for keeping the balances of all the accounts\r\n    mapping(address => uint256) public balanceOf;\r\n\r\n    //@dev amping array that keeps the allowance that is still allowed to withdraw from _owner\r\n    mapping(address => mapping(address => uint256)) public allowance;\r\n    //@notice account A approved account B to send C tokens (amount C is actually left )\r\n\r\n\r\n    constructor(uint256 _intialSupply, uint8 _intialDecimals)\r\n    public\r\n    {\r\n        balanceOf[msg.sender] = _intialSupply;\r\n        totalSupply = _intialSupply;\r\n        decimals = _intialDecimals;\r\n    }\r\n\r\n\r\n    // @dev Transfers tokens from sender account to\r\n    // @param _from Address that sends tokens\r\n    // @param _to Address that receives tokens\r\n    // @param _value the amount that _spender can spend on behalf of _owner\r\n    function transfer(address _to, uint256 _value)\r\n    public\r\n    returns(bool success)\r\n    {\r\n        require(balanceOf[msg.sender] >= _value);\r\n        balanceOf[msg.sender] = balanceOf[msg.sender] - _value;\r\n        balanceOf[_to] = balanceOf[_to] + _value;\r\n        emit Transfer(msg.sender, _to, _value);\r\n        return true;\r\n    }\r\n\r\n    // @dev Allows _spender to withdraw from [msg.sender] account multiple times,\r\n    // up to the _value amount.\r\n    // @param _spender address to whom the approval is issued\r\n    // @param _value the amount that _spender can spend on behalf of _owner\r\n    // @notice If this function is called again it overwrites the current allowance\r\n    // with _value.\r\n    function approve(address _spender, uint256 _value)\r\n    public\r\n    returns(bool success)\r\n    {\r\n        allowance[msg.sender][_spender] = _value;\r\n        emit Approval(msg.sender, _spender, _value);\r\n        return true;\r\n    }\r\n\r\n    // @dev Transfers tokens on behalf of _form account to _to account. [msg.sender]\r\n    // should have an allowance from _from account to transfer the number of tokens.\r\n    // @param _from address tokens are transferred from\r\n    // @param _to address tokens are transferred to\r\n    // @parram _value the number of tokens transferred\r\n    // @notice _from account should have enough tokens and allowance should be equal\r\n    // or greater than the amount transferred\r\n    function transferFrom(address _from, address _to, uint256 _value)\r\n    public\r\n    returns(bool success)\r\n    {\r\n        require(balanceOf[_from] >= _value);\r\n        require(allowance[_from][msg.sender] >= _value);\r\n        balanceOf[_from] = balanceOf[_from] - _value;\r\n        balanceOf[_to] = balanceOf[_to] + _value;\r\n        allowance[_from][msg.sender] = allowance[_from][msg.sender] - _value;\r\n        emit Transfer(_from, _to, _value);\r\n        return true;\r\n    }\r\n}",
  "sourcePath": "C:/Users/Superuser/Desktop/Bhangra/token/contracts/BhangraCoin.sol",
  "compiler": {
    "name": "solc",
    "version": "0.8.2+commit.661d1103.Emscripten.clang"
  },
  "schemaVersion": "3.3.4",
  "updatedAt": "2021-03-19T20:50:55.542Z",
  "networkType": "ethereum",
  "devdoc": {
    "kind": "dev",
    "methods": {},
    "version": 1
  },
  "userdoc": {
    "kind": "user",
    "methods": {},
    "version": 1
  }
}